:100000000C9467000C948F000C948F000C948F005C
:100010000C948F000C948F000C948F000C948F0024
:100020000C948F000C94BB020C948F000C948F00E6
:100030000C948F000C948F000C948F000C948F0004
:100040000C9433040C948F000C94B5040C948F0022
:100050000C948F000C948F000C948F000C948F00E4
:100060000C948F000C948F00EF017B02E8017B025F
:100070007B027B02E1017B02D3017B02C0017B0298
:10008000C9017B027B027B026A027B0253027B0274
:1000900049027B023C027B027B027B027B027B02E9
:1000A00031027B0226027B027B027B027B027B0207
:1000B0001F027B0208027B02F3017B027B027B02B0
:1000C0007B027B02B001B001B301C20046061124DD
:1000D0001FBECFEFD4E0DEBFCDBF11E0A0E0B1E0A6
:1000E000ECE9FEE002C005900D92AA30B107D9F705
:1000F00012E0AAE0B1E001C01D92A93AB107E1F710
:1001000010E0CEECD0E004C02297FE010E94480728
:10011000CA3CD107C9F70E94B4020C944C070C9456
:100120000000F999FECF72BD61BDF89A80B50895BF
:10013000F999FECF1FBA72BD61BD40BD0FB6F894EC
:10014000FA9AF99A0FBE0895E0EBF0E0808183609F
:100150008083E1EBF0E080818460808380818C7F0C
:10016000808380818C7F8083E6EBF0E080818083D8
:10017000E0E7F0E080818160808387EE8093B200C9
:10018000789408958BE091E00E94E6020895AF9282
:10019000BF92CF92DF92FF920F931F93CF93DF9383
:1001A000BC016C010894C11CD11C8AE091E00E9442
:1001B0009100A82EBB2400E010E019C0E601FF2446
:1001C000BE0121968AE091E00E949100282F8BE0E9
:1001D00091E0602F4F2D0E942A03F39488E1F816D6
:1001E00079F788E190E0C80ED91E0F5F1F4F0A15FE
:1001F0001B0520F3DF91CF911F910F91FF90DF90AE
:10020000CF90BF90AF9008958F929F92AF92BF9280
:10021000DF92EF92FF920F931F93CF93DF938C01A6
:100220008BE091E00E940603482F882E9924580104
:100230000894A11CB11C8AE091E0B8010E949800CA
:10024000EE24FF241DC0E501DD241C2F0D2F219677
:100250008BE091E06E2D4D2D0E944703482F8AE0E0
:1002600091E0612F702F0E949800D39488E1D816F6
:1002700061F788E190E0A80EB91E0894E11CF11C1A
:10028000E814F90400F3DF91CF911F910F91FF90D3
:10029000EF90DF90BF90AF909F908F900895EF9276
:1002A000FF920F931F93182F062F86E9E82E82E006
:1002B000F82EC7010E942706C70161E00E9433069D
:1002C000C701612F0E943306C701602F0E943306C9
:1002D0001F910F91FF90EF90089586E992E00E94A0
:1002E000FF05089586E992E00E94EB058823D1F38B
:1002F0000E946D0108958BE091E00E94F902109236
:1003000005021092040288E99AE390930702809311
:10031000060282E0809308021092030208950F9370
:100320001F9386E992E00E94EB05882309F4E3C05D
:100330000E946D018F3F09F0DEC00E947201282FDC
:1003400090E0FC01EE5CF040E133F10508F0D3C031
:10035000EC5CFF4FEE0FFF1F0590F491E02D099428
:10036000822F61E0C6C080E090E00E94C7000E943A
:100370007B018BE091E00E941703682F8EEFB9C0DC
:10038000109203028BE091E00E941703682F88ED22
:10039000B0C081E0809303028BE091E00E941703DC
:1003A000682F8AEDA6C00E947201682F8BE091E051
:1003B0000E940B038BE091E00E941703682F86EDEB
:1003C00098C08BE091E00E941703682F84ED91C0E4
:1003D0000E947201682F8093080280ED8AC08EEC23
:1003E0006091080286C00E947201082F86EF68E1C2
:1003F0000E944F0110E00E947201282F8BE091E0D3
:10040000602F412F0E942A031F5F1831A1F773C08C
:100410000E947201082F84EF68E10E944F0110E0F2
:100420008BE091E0602F412F0E944703682F86E9FF
:1004300092E00E9433061F5F183191F75CC08BE099
:1004400091E00E940603682F82EF53C080E090E0A5
:100450000E9404018BE091E00E940603682F8CEE5D
:1004600048C080E090E00E94C7008BE091E00E94CD
:100470000603682F8AEE3DC00E947201682F84E651
:10048000689FC0011124909307028093060284EEB6
:1004900030C0809106029091070264E670E00E94ED
:1004A000E20682EE26C08091060290910702853610
:1004B000910530F084569040909307028093060295
:1004C000809106029091070264E670E00E94E206C5
:1004D00080EE0FC080910602909107028C599F4FC9
:1004E000909307028093060264E670E00E94E206A1
:1004F0008EED0E944F011F910F9108950E948F0170
:10050000809103028823D9F0809104029091050222
:10051000892B61F480910602909107029093050265
:10052000809304028BE091E00E941C0380910402FE
:10053000909105020197909305028093040208951B
:1005400086E992E040E051EE60E070E00E94F20443
:100550000E947B0180E090E00E94C70081E08093D0
:1005600003020E94A40008950E947B040E94A0023E
:100570000E947E02FDCF1F920F920FB60F921124A0
:100580002F933F934F935F936F937F938F939F939B
:10059000AF93BF93EF93FF9387EE8093B2008BE00E
:1005A00091E0609108020E94D003FF91EF91BF910A
:1005B000AF919F918F917F916F915F914F913F91FB
:1005C0002F910F900FBE0F901F901895FC018FEF89
:1005D0008AB987B984B915B81BB8EF50FF4F10829C
:1005E00035961192108235971182108232971082BF
:1005F0000895FC01EF50FF4F108235961192108242
:10060000359711821082329710820895FC01E051D3
:10061000FF4F80810895FC01E051FF4F8081E05F32
:10062000F040681718F4EF50FF4F60830895FC0105
:10063000EF50FF4F80810895FC01DC01AF50BF4FA8
:100640008C918F5F8C93E051FF4F9081891708F058
:100650001C920895DC016A30C8F4862F90E0FC01FA
:10066000EE0FFF1FE80FF91F83E0EE0FFF1F8A95C3
:10067000E1F7E40FF11DEA0FFB1F2083FD01E051BC
:10068000FF4F8081681710F06F5F60830895DC0171
:10069000A051BF4F8C91A05FB040681710F080E070
:1006A0000895862F90E0FC01EE0FFF1FE80FF91F61
:1006B00053E0EE0FFF1F5A95E1F7E40FF11DEA0F2B
:1006C000FB1F8081089580E070E060FF02C0409AC7
:1006D00001C040984198419A8F5F883019F0759514
:1006E0006795F2CF0895633078F483B124E030E069
:1006F00002C0359527956A95E2F7887F822B85B9E8
:1007000089B187708BB9089583B1887F85B949B164
:10071000862F90E0039720E830E002C035952795BA
:100720008A95E2F74770422B4BB90895EF92FF92FA
:100730000F931F93CF93DF93EC01142FF22E439A64
:100740000E947303429AC950DF4F8881C75FD0402F
:10075000811708F000E0CE01602F0E946303C950AA
:10076000DF4F8881C75FD040811708F0FF24CE019A
:100770006F2D0E946303C950DF4F8881C75FD0404F
:10078000811708F0EE24CE016E2D0E94630342987B
:100790004398DF91CF911F910F91FF90EF900895B3
:1007A000CF92DF92EF920F93CF93DF93EC01362F2E
:1007B000C051DF4F8881C05FD040882309F44CC00E
:1007C000F6EFCF2ED12CCC0EDD1EF6019081CF504E
:1007D000DF4F4881C15FD04088E1489FA0011124CC
:1007E000490F511DDE01AC50BF4F11965C934E93E3
:1007F0008081FE01E40FF51F20814F5F5F4FFE01F6
:10080000E40FF51F00814F5F5F4FFE01E40FF51FFE
:10081000E0804F5F5F4F4D935C9363E00E94D6068C
:10082000682FCE01432F0E949603F6018081873105
:1008300078F01082FE01E950FF4F80818F3010F078
:1008400080E002C080818F5FC950DF4F888304C081
:10085000F60180818D5F8083DF91CF910F91EF90C2
:10086000DF90CF9008951F920F920FB60F92112430
:100870002F933F938F939F93AF93BF9380910D02DC
:1008800090910E02A0910F02B091100230911102CE
:100890000196A11DB11D232F2D5F2D3720F02D575F
:1008A0000196A11DB11D2093110280930D0290931A
:1008B0000E02A0930F02B093100280910902909152
:1008C0000A02A0910B02B0910C020196A11DB11D6C
:1008D0008093090290930A02A0930B02B0930C023A
:1008E000BF91AF919F918F913F912F910F900FBE2C
:1008F0000F901F901895789484B5826084BD84B55C
:10090000816084BD85B5826085BD85B5816085BD0A
:10091000EEE6F0E0808181608083E1E8F0E08081B4
:1009200082608083808181608083E0E8F0E0808164
:1009300081608083E1EBF0E0808184608083E0EB84
:10094000F0E0808181608083EAE7F0E0808184606C
:1009500080838081826080838081816080838081C8
:10096000806880831092C10008951F920F920FB685
:100970000F9211242F933F934F935F936F937F9325
:100980008F939F93AF93BF93EF93FF934091C600D4
:10099000E0919202F0919302CF01019660E870E03D
:1009A0000E94F6069C01809194029091950228176E
:1009B000390739F0EE5EFD4F408330939302209368
:1009C0009202FF91EF91BF91AF919F918F917F9193
:1009D0006F915F914F913F912F910F900FBE0F90AC
:1009E0001F9018955F926F927F928F929F92AF9215
:1009F000BF92CF92DF92EF92FF920F931F93CF930C
:100A0000DF93EC013A014B01413482E458078FE057
:100A1000680780E078070CF07FC060E874E88EE13A
:100A200090E0A40193010E942B07215030404040E8
:100A30005040CA01B90122E030E040E050E00E949D
:100A40002B0759016A01A601950120953095409523
:100A5000509594E0220F331F441F551F9A95D1F7EC
:100A600060E074E284EF90E00E942B07CA01B901B4
:100A70002FEF30E040E050E00E94B706A401930160
:100A80000E942B07C90181509F4F181619061CF4AC
:100A9000522E5A9403C055245394521A60E079E0C0
:100AA0008DE390E0A40193010E942B072150304078
:100AB00040405040CA01B90122E030E040E050E03F
:100AC0000E942B07209530954095509583E0220F8A
:100AD000331F441F551F8A95D1F760E074E284EFFD
:100AE00090E00E942B07CA01B9012FEF30E040E0EF
:100AF00050E00E94B706A40193010E942B07C90190
:100B000081509F4F181619061CF4822F815002C085
:100B100081E0821B851500F5E885F98581E090E08C
:100B20000A8802C0880F991F0A94E2F7808360E068
:100B300079E08DE390E0A40193010E942B072150FE
:100B4000304040405040CA01B90122E030E040E06E
:100B500050E00E942B0704C0E885F98510829501BA
:100B6000EC81FD813083EE81FF812083EA85FB8566
:100B7000208141E050E0CA010E8402C0880F991F15
:100B80000A94E2F7282B2083EA85FB852081CA019D
:100B90000F8402C0880F991F0A94E2F7282B208344
:100BA000EA85FB858081088802C0440F551F0A949E
:100BB000E2F7842B8083DF91CF911F910F91FF90FB
:100BC000EF90DF90CF90BF90AF909F908F907F90ED
:100BD0006F905F900895DC011296ED91FC91139750
:100BE000E058FF4F8191919180589F4F2081318132
:100BF000821B930B60E870E00E94F6060895CF9385
:100C0000DF93DC011296ED91FC911397EF01CE5723
:100C1000DF4F48815981E058FF4F80819181E05832
:100C2000F0408417950719F42FEF3FEF0CC0E40F45
:100C3000F51F2081CA01019660E870E00E94F60667
:100C40009983888330E0C901DF91CF910895DC0159
:100C50001296ED91FC911397EE57FF4F8081918191
:100C6000929382930895FC01A085B18521898C918E
:100C700090E0022E02C0959587950A94E2F780FFD6
:100C8000F6CF0484F585E02D6083089584E091E03B
:100C9000909397028093960282E192E0909399025A
:100CA0008093980285EC90E090939B0280939A0247
:100CB00084EC90E090939D0280939C0280EC90E005
:100CC00090939F0280939E0281EC90E09093A1020A
:100CD0008093A00286EC90E09093A3028093A202FE
:100CE00084E08093A40283E08093A50287E0809350
:100CF000A60285E08093A70281E08093A802089570
:100D00000F931F93CF93DF938C01EB0109C02196C2
:100D1000D801ED91FC910190F081E02DC801099579
:100D200068816623A1F7DF91CF911F910F910895FC
:100D3000EF92FF920F931F93CF93DF938C017B0170
:100D4000EA010CC0D7016D917D01D801ED91FC91B4
:100D50000190F081E02DC80109952197209791F726
:100D6000DF91CF911F910F91FF90EF900895629FB7
:100D7000D001739FF001829FE00DF11D649FE00D93
:100D8000F11D929FF00D839FF00D749FF00D659FF4
:100D9000F00D9927729FB00DE11DF91F639FB00DF3
:100DA000E11DF91FBD01CF0111240895991B79E0C0
:100DB00004C0991F961708F0961B881F7A95C9F7EB
:100DC00080950895AA1BBB1B51E107C0AA1FBB1F3A
:100DD000A617B70710F0A61BB70B881F991F5A95C7
:100DE000A9F780959095BC01CD01089597FB092E38
:100DF00007260AD077FD04D0E5DF06D000201AF4DC
:100E0000709561957F4F0895F6F7909581959F4F66
:100E10000895A1E21A2EAA1BBB1BFD010DC0AA1F3B
:100E2000BB1FEE1FFF1FA217B307E407F50720F053
:100E3000A21BB30BE40BF50B661F771F881F991FCE
:100E40001A9469F760957095809590959B01AC0117
:100E5000BD01CF01089597FB092E05260ED057FD41
:100E600004D0D7DF0AD0001C38F450954095309557
:100E700021953F4F4F4F5F4F0895F6F7909580951E
:100E8000709561957F4F8F4F9F4F0895EE0FFF1F15
:0C0E90000590F491E02D0994F894FFCF38
:0A0E9C0000000000330680069806EF
:00000001FF
